{
    "_format": "hh-sol-artifact-1",
    "contractName": "Router",
    "sourceName": "contracts/router.sol",
    "abi": [
        {
            "inputs": [],
            "stateMutability": "nonpayable",
            "type": "constructor"
        },
        {
            "inputs": [
                {
                    "internalType": "address",
                    "name": "owner",
                    "type": "address"
                }
            ],
            "name": "OwnableInvalidOwner",
            "type": "error"
        },
        {
            "inputs": [
                {
                    "internalType": "address",
                    "name": "account",
                    "type": "address"
                }
            ],
            "name": "OwnableUnauthorizedAccount",
            "type": "error"
        },
        {
            "anonymous": false,
            "inputs": [
                {
                    "indexed": false,
                    "internalType": "address",
                    "name": "investorAccount",
                    "type": "address"
                },
                {
                    "indexed": false,
                    "internalType": "address",
                    "name": "merchantAccount",
                    "type": "address"
                },
                {
                    "indexed": false,
                    "internalType": "uint256",
                    "name": "amount",
                    "type": "uint256"
                },
                {
                    "indexed": false,
                    "internalType": "uint8",
                    "name": "loanCategory",
                    "type": "uint8"
                }
            ],
            "name": "LoanDisbursed",
            "type": "event"
        },
        {
            "anonymous": false,
            "inputs": [
                {
                    "indexed": true,
                    "internalType": "address",
                    "name": "previousOwner",
                    "type": "address"
                },
                {
                    "indexed": true,
                    "internalType": "address",
                    "name": "newOwner",
                    "type": "address"
                }
            ],
            "name": "OwnershipTransferred",
            "type": "event"
        },
        {
            "anonymous": false,
            "inputs": [
                {
                    "indexed": false,
                    "internalType": "address",
                    "name": "userAccount",
                    "type": "address"
                },
                {
                    "indexed": false,
                    "internalType": "address",
                    "name": "merchantAccount",
                    "type": "address"
                },
                {
                    "indexed": false,
                    "internalType": "uint256",
                    "name": "tier",
                    "type": "uint256"
                },
                {
                    "indexed": false,
                    "internalType": "uint256",
                    "name": "subTime",
                    "type": "uint256"
                }
            ],
            "name": "Subscription",
            "type": "event"
        },
        {
            "anonymous": false,
            "inputs": [
                {
                    "indexed": false,
                    "internalType": "address",
                    "name": "userAccount",
                    "type": "address"
                },
                {
                    "indexed": false,
                    "internalType": "address",
                    "name": "merchantAccount",
                    "type": "address"
                },
                {
                    "indexed": false,
                    "internalType": "uint256",
                    "name": "paymentAmount",
                    "type": "uint256"
                },
                {
                    "indexed": false,
                    "internalType": "uint256",
                    "name": "paymentTime",
                    "type": "uint256"
                }
            ],
            "name": "SubscriptionPayment",
            "type": "event"
        },
        {
            "inputs": [
                {
                    "internalType": "address",
                    "name": "investorAccount",
                    "type": "address"
                },
                {
                    "internalType": "uint256",
                    "name": "offerId",
                    "type": "uint256"
                }
            ],
            "name": "acceptOffer",
            "outputs": [],
            "stateMutability": "nonpayable",
            "type": "function"
        },
        {
            "inputs": [
                {
                    "internalType": "address",
                    "name": "userAccount",
                    "type": "address"
                },
                {
                    "internalType": "address",
                    "name": "merchantAccount",
                    "type": "address"
                },
                {
                    "internalType": "uint256",
                    "name": "amount",
                    "type": "uint256"
                }
            ],
            "name": "charge",
            "outputs": [],
            "stateMutability": "nonpayable",
            "type": "function"
        },
        {
            "inputs": [
                {
                    "internalType": "address",
                    "name": "merchantAccount",
                    "type": "address"
                }
            ],
            "name": "fundRequest",
            "outputs": [],
            "stateMutability": "nonpayable",
            "type": "function"
        },
        {
            "inputs": [
                {
                    "internalType": "address",
                    "name": "investorPool",
                    "type": "address"
                },
                {
                    "internalType": "uint256",
                    "name": "loanAmount",
                    "type": "uint256"
                }
            ],
            "name": "getLoan",
            "outputs": [],
            "stateMutability": "nonpayable",
            "type": "function"
        },
        {
            "inputs": [],
            "name": "owner",
            "outputs": [
                {
                    "internalType": "address",
                    "name": "",
                    "type": "address"
                }
            ],
            "stateMutability": "view",
            "type": "function"
        },
        {
            "inputs": [],
            "name": "renounceOwnership",
            "outputs": [],
            "stateMutability": "nonpayable",
            "type": "function"
        },
        {
            "inputs": [
                {
                    "internalType": "address",
                    "name": "_userFactoryAddress",
                    "type": "address"
                }
            ],
            "name": "setFactory",
            "outputs": [],
            "stateMutability": "nonpayable",
            "type": "function"
        },
        {
            "inputs": [
                {
                    "internalType": "uint8",
                    "name": "tier",
                    "type": "uint8"
                },
                {
                    "internalType": "address",
                    "name": "merchantAccount",
                    "type": "address"
                }
            ],
            "name": "subscribe",
            "outputs": [],
            "stateMutability": "nonpayable",
            "type": "function"
        },
        {
            "inputs": [
                {
                    "internalType": "address",
                    "name": "newOwner",
                    "type": "address"
                }
            ],
            "name": "transferOwnership",
            "outputs": [],
            "stateMutability": "nonpayable",
            "type": "function"
        },
        {
            "inputs": [],
            "name": "userFactoryAddress",
            "outputs": [
                {
                    "internalType": "address",
                    "name": "",
                    "type": "address"
                }
            ],
            "stateMutability": "view",
            "type": "function"
        }
    ],
    "bytecode": "0x608060405234801561001057600080fd5b5033600073ffffffffffffffffffffffffffffffffffffffff168173ffffffffffffffffffffffffffffffffffffffff16036100845760006040517f1e4fbdf700000000000000000000000000000000000000000000000000000000815260040161007b919061019e565b60405180910390fd5b6100938161009960201b60201c565b506101b9565b60008060009054906101000a900473ffffffffffffffffffffffffffffffffffffffff169050816000806101000a81548173ffffffffffffffffffffffffffffffffffffffff021916908373ffffffffffffffffffffffffffffffffffffffff1602179055508173ffffffffffffffffffffffffffffffffffffffff168173ffffffffffffffffffffffffffffffffffffffff167f8be0079c531659141344cd1fd0a4f28419497f9722a3daafe3b4186f6b6457e060405160405180910390a35050565b600073ffffffffffffffffffffffffffffffffffffffff82169050919050565b60006101888261015d565b9050919050565b6101988161017d565b82525050565b60006020820190506101b3600083018461018f565b92915050565b61185d806101c86000396000f3fe608060405234801561001057600080fd5b506004361061009e5760003560e01c8063b1b9e78d11610066578063b1b9e78d14610121578063c709a4f11461013d578063dcaf476114610159578063f2fde38b14610175578063fc5be4a5146101915761009e565b806336bab95b146100a35780635bb47808146100c1578063715018a6146100dd5780638da5cb5b146100e7578063a1c5158614610105575b600080fd5b6100ab6101ad565b6040516100b89190610f61565b60405180910390f35b6100db60048036038101906100d69190610fad565b6101d3565b005b6100e561021f565b005b6100ef610233565b6040516100fc9190610f61565b60405180910390f35b61011f600480360381019061011a9190611010565b61025c565b005b61013b60048036038101906101369190611010565b610540565b005b61015760048036038101906101529190611050565b6107a0565b005b610173600480360381019061016e91906110dc565b61084f565b005b61018f600480360381019061018a9190610fad565b610a94565b005b6101ab60048036038101906101a69190610fad565b610b1a565b005b600160009054906101000a900473ffffffffffffffffffffffffffffffffffffffff1681565b6101db610dcd565b80600160006101000a81548173ffffffffffffffffffffffffffffffffffffffff021916908373ffffffffffffffffffffffffffffffffffffffff16021790555050565b610227610dcd565b6102316000610e54565b565b60008060009054906101000a900473ffffffffffffffffffffffffffffffffffffffff16905090565b6000600160009054906101000a900473ffffffffffffffffffffffffffffffffffffffff1673ffffffffffffffffffffffffffffffffffffffff16635872fe45336040518263ffffffff1660e01b81526004016102b99190610f61565b602060405180830381865afa1580156102d6573d6000803e3d6000fd5b505050506040513d601f19601f820116820180604052508101906102fa9190611131565b905060008373ffffffffffffffffffffffffffffffffffffffff1663c392f7666040518163ffffffff1660e01b8152600401602060405180830381865afa158015610349573d6000803e3d6000fd5b505050506040513d601f19601f8201168201806040525081019061036d9190611173565b905060008473ffffffffffffffffffffffffffffffffffffffff166318b4dd3c6040518163ffffffff1660e01b8152600401602060405180830381865afa1580156103bc573d6000803e3d6000fd5b505050506040513d601f19601f820116820180604052508101906103e09190611173565b9050600084856064856103f391906111fe565b6103fd919061122f565b6104079190611271565b90506000828261041791906111fe565b90508473ffffffffffffffffffffffffffffffffffffffff16637b294651888486856040518563ffffffff1660e01b815260040161045894939291906112b4565b600060405180830381600087803b15801561047257600080fd5b505af1158015610486573d6000803e3d6000fd5b505050508673ffffffffffffffffffffffffffffffffffffffff1663cf248fc08688866040518463ffffffff1660e01b81526004016104c7939291906112f9565b600060405180830381600087803b1580156104e157600080fd5b505af11580156104f5573d6000803e3d6000fd5b505050507feecfb568d87d2e2a943b140bf19b45a5a34f943c5fcddd38286ca8a1e3fed4b9878688600260405161052f9493929190611375565b60405180910390a150505050505050565b6000806000808573ffffffffffffffffffffffffffffffffffffffff16638a72ea6a866040518263ffffffff1660e01b815260040161057f91906113ba565b60c060405180830381865afa15801561059c573d6000803e3d6000fd5b505050506040513d601f19601f820116820180604052508101906105c091906113d5565b955095505050935093506000600160009054906101000a900473ffffffffffffffffffffffffffffffffffffffff1673ffffffffffffffffffffffffffffffffffffffff16635872fe45336040518263ffffffff1660e01b81526004016106279190610f61565b602060405180830381865afa158015610644573d6000803e3d6000fd5b505050506040513d601f19601f820116820180604052508101906106689190611131565b905060008383610678919061122f565b90508173ffffffffffffffffffffffffffffffffffffffff16637b294651878387876040518563ffffffff1660e01b81526004016106b994939291906112b4565b600060405180830381600087803b1580156106d357600080fd5b505af11580156106e7573d6000803e3d6000fd5b505050508573ffffffffffffffffffffffffffffffffffffffff1663847e043183896040518363ffffffff1660e01b8152600401610726929190611462565b600060405180830381600087803b15801561074057600080fd5b505af1158015610754573d6000803e3d6000fd5b505050507feecfb568d87d2e2a943b140bf19b45a5a34f943c5fcddd38286ca8a1e3fed4b9888387600160405161078e94939291906114c6565b60405180910390a15050505050505050565b8273ffffffffffffffffffffffffffffffffffffffff166305dba2b082846040518363ffffffff1660e01b81526004016107db92919061150b565b600060405180830381600087803b1580156107f557600080fd5b505af1158015610809573d6000803e3d6000fd5b505050507f2a1325bec5686deb06f4cba50e01bb845167acabf7be6fdeab3e17b30945a893838383426040516108429493929190611534565b60405180910390a1505050565b60008173ffffffffffffffffffffffffffffffffffffffff16635bb4d1a16040518163ffffffff1660e01b8152600401602060405180830381865afa15801561089c573d6000803e3d6000fd5b505050506040513d601f19601f820116820180604052508101906108c09190611173565b90506000600160009054906101000a900473ffffffffffffffffffffffffffffffffffffffff1673ffffffffffffffffffffffffffffffffffffffff16635872fe45336040518263ffffffff1660e01b815260040161091f9190610f61565b602060405180830381865afa15801561093c573d6000803e3d6000fd5b505050506040513d601f19601f820116820180604052508101906109609190611131565b9050600042836109709190611271565b90508173ffffffffffffffffffffffffffffffffffffffff1663ceeef2df8683876040518463ffffffff1660e01b81526004016109af93929190611588565b600060405180830381600087803b1580156109c957600080fd5b505af11580156109dd573d6000803e3d6000fd5b505050508373ffffffffffffffffffffffffffffffffffffffff1663f8eee29f8683856040518463ffffffff1660e01b8152600401610a1e93929190611588565b600060405180830381600087803b158015610a3857600080fd5b505af1158015610a4c573d6000803e3d6000fd5b505050507f92496e57ade774bad399afe66fc65f025d87d4509e749be5506e4cd24aeef0ee82858742604051610a8594939291906115f0565b60405180910390a15050505050565b610a9c610dcd565b600073ffffffffffffffffffffffffffffffffffffffff168173ffffffffffffffffffffffffffffffffffffffff1603610b0e5760006040517f1e4fbdf7000000000000000000000000000000000000000000000000000000008152600401610b059190610f61565b60405180910390fd5b610b1781610e54565b50565b6000600160009054906101000a900473ffffffffffffffffffffffffffffffffffffffff1673ffffffffffffffffffffffffffffffffffffffff16635872fe45336040518263ffffffff1660e01b8152600401610b779190610f61565b602060405180830381865afa158015610b94573d6000803e3d6000fd5b505050506040513d601f19601f82011682018060405250810190610bb89190611131565b9050600073ffffffffffffffffffffffffffffffffffffffff168173ffffffffffffffffffffffffffffffffffffffff1603610c29576040517f08c379a0000000000000000000000000000000000000000000000000000000008152600401610c2090611692565b60405180910390fd5b6000806000808573ffffffffffffffffffffffffffffffffffffffff1663d32a66466040518163ffffffff1660e01b815260040160e060405180830381865afa158015610c7a573d6000803e3d6000fd5b505050506040513d601f19601f82011682018060405250810190610c9e91906116b2565b96509650505094509450508573ffffffffffffffffffffffffffffffffffffffff1663e497718e866040518263ffffffff1660e01b8152600401610ce29190610f61565b600060405180830381600087803b158015610cfc57600080fd5b505af1158015610d10573d6000803e3d6000fd5b505050508473ffffffffffffffffffffffffffffffffffffffff16630b82549687868686866040518663ffffffff1660e01b8152600401610d55959493929190611754565b600060405180830381600087803b158015610d6f57600080fd5b505af1158015610d83573d6000803e3d6000fd5b505050507feecfb568d87d2e2a943b140bf19b45a5a34f943c5fcddd38286ca8a1e3fed4b98587866000604051610dbd94939291906117e2565b60405180910390a1505050505050565b610dd5610f18565b73ffffffffffffffffffffffffffffffffffffffff16610df3610233565b73ffffffffffffffffffffffffffffffffffffffff1614610e5257610e16610f18565b6040517f118cdaa7000000000000000000000000000000000000000000000000000000008152600401610e499190610f61565b60405180910390fd5b565b60008060009054906101000a900473ffffffffffffffffffffffffffffffffffffffff169050816000806101000a81548173ffffffffffffffffffffffffffffffffffffffff021916908373ffffffffffffffffffffffffffffffffffffffff1602179055508173ffffffffffffffffffffffffffffffffffffffff168173ffffffffffffffffffffffffffffffffffffffff167f8be0079c531659141344cd1fd0a4f28419497f9722a3daafe3b4186f6b6457e060405160405180910390a35050565b600033905090565b600073ffffffffffffffffffffffffffffffffffffffff82169050919050565b6000610f4b82610f20565b9050919050565b610f5b81610f40565b82525050565b6000602082019050610f766000830184610f52565b92915050565b600080fd5b610f8a81610f40565b8114610f9557600080fd5b50565b600081359050610fa781610f81565b92915050565b600060208284031215610fc357610fc2610f7c565b5b6000610fd184828501610f98565b91505092915050565b6000819050919050565b610fed81610fda565b8114610ff857600080fd5b50565b60008135905061100a81610fe4565b92915050565b6000806040838503121561102757611026610f7c565b5b600061103585828601610f98565b925050602061104685828601610ffb565b9150509250929050565b60008060006060848603121561106957611068610f7c565b5b600061107786828701610f98565b935050602061108886828701610f98565b925050604061109986828701610ffb565b9150509250925092565b600060ff82169050919050565b6110b9816110a3565b81146110c457600080fd5b50565b6000813590506110d6816110b0565b92915050565b600080604083850312156110f3576110f2610f7c565b5b6000611101858286016110c7565b925050602061111285828601610f98565b9150509250929050565b60008151905061112b81610f81565b92915050565b60006020828403121561114757611146610f7c565b5b60006111558482850161111c565b91505092915050565b60008151905061116d81610fe4565b92915050565b60006020828403121561118957611188610f7c565b5b60006111978482850161115e565b91505092915050565b7f4e487b7100000000000000000000000000000000000000000000000000000000600052601260045260246000fd5b7f4e487b7100000000000000000000000000000000000000000000000000000000600052601160045260246000fd5b600061120982610fda565b915061121483610fda565b925082611224576112236111a0565b5b828204905092915050565b600061123a82610fda565b915061124583610fda565b925082820261125381610fda565b9150828204841483151761126a576112696111cf565b5b5092915050565b600061127c82610fda565b915061128783610fda565b925082820190508082111561129f5761129e6111cf565b5b92915050565b6112ae81610fda565b82525050565b60006080820190506112c96000830187610f52565b6112d660208301866112a5565b6112e360408301856112a5565b6112f060608301846112a5565b95945050505050565b600060608201905061130e6000830186610f52565b61131b60208301856112a5565b61132860408301846112a5565b949350505050565b6000819050919050565b6000819050919050565b600061135f61135a61135584611330565b61133a565b6110a3565b9050919050565b61136f81611344565b82525050565b600060808201905061138a6000830187610f52565b6113976020830186610f52565b6113a460408301856112a5565b6113b16060830184611366565b95945050505050565b60006020820190506113cf60008301846112a5565b92915050565b60008060008060008060c087890312156113f2576113f1610f7c565b5b600061140089828a0161111c565b965050602061141189828a0161115e565b955050604061142289828a0161115e565b945050606061143389828a0161115e565b935050608061144489828a0161115e565b92505060a061145589828a0161115e565b9150509295509295509295565b60006040820190506114776000830185610f52565b61148460208301846112a5565b9392505050565b6000819050919050565b60006114b06114ab6114a68461148b565b61133a565b6110a3565b9050919050565b6114c081611495565b82525050565b60006080820190506114db6000830187610f52565b6114e86020830186610f52565b6114f560408301856112a5565b61150260608301846114b7565b95945050505050565b600060408201905061152060008301856112a5565b61152d6020830184610f52565b9392505050565b60006080820190506115496000830187610f52565b6115566020830186610f52565b61156360408301856112a5565b61157060608301846112a5565b95945050505050565b611582816110a3565b82525050565b600060608201905061159d6000830186611579565b6115aa60208301856112a5565b6115b76040830184610f52565b949350505050565b60006115da6115d56115d0846110a3565b61133a565b610fda565b9050919050565b6115ea816115bf565b82525050565b60006080820190506116056000830187610f52565b6116126020830186610f52565b61161f60408301856115e1565b61162c60608301846112a5565b95945050505050565b600082825260208201905092915050565b7f43726561746520616e204163636f756e74000000000000000000000000000000600082015250565b600061167c601183611635565b915061168782611646565b602082019050919050565b600060208201905081810360008301526116ab8161166f565b9050919050565b600080600080600080600060e0888a0312156116d1576116d0610f7c565b5b60006116df8a828b0161111c565b97505060206116f08a828b0161115e565b96505060406117018a828b0161115e565b95505060606117128a828b0161115e565b94505060806117238a828b0161115e565b93505060a06117348a828b0161115e565b92505060c06117458a828b0161115e565b91505092959891949750929550565b600060a0820190506117696000830188610f52565b61177660208301876112a5565b61178360408301866112a5565b61179060608301856112a5565b61179d60808301846112a5565b9695505050505050565b6000819050919050565b60006117cc6117c76117c2846117a7565b61133a565b6110a3565b9050919050565b6117dc816117b1565b82525050565b60006080820190506117f76000830187610f52565b6118046020830186610f52565b61181160408301856112a5565b61181e60608301846117d3565b9594505050505056fea264697066735822122070f8ed1a5ee732f23ac7454c58ff9e9cd20d416d2935657e1e43b527637dd1a764736f6c634300081b0033",
    "linkReferences": {},
    "deployedLinkReferences": {}
}